:100000000C945C000C946E000C946E000C946E00CA
:100010000C946E000C946E000C946E000C946E00A8
:100020000C946E000C946E000C946E000C946E0098
:100030000C946E000C946E000C946E000C946E0088
:100040000C94FF000C946E000C946E000C946E00E7
:100050000C946E000C946E000C946E000C946E0068
:100060000C946E000C946E00000000002400270029
:100070002A0000000000250028002B0004040404CE
:100080000404040402020202020203030303030342
:10009000010204081020408001020408102001021F
:1000A00004081020000000080002010000030407FB
:1000B000000000000000000011241FBECFEFD8E0B8
:1000C000DEBFCDBF21E0A0E0B1E001C01D92A930AC
:1000D000B207E1F70E9449010C940F030C94000051
:1000E00090E0FC01EC55FF4F2491FC01E057FF4FDD
:1000F0003491FC01E458FF4FE491EE23C9F0222330
:1001000039F0233001F1A8F4213019F1223029F11E
:10011000F0E0EE0FFF1FEE58FF4FA591B4918FB79F
:10012000F894EC91611126C030953E233C938FBF2B
:1001300008952730A9F02830C9F0243049F780917C
:1001400080008F7D03C0809180008F778093800036
:10015000DFCF84B58F7784BDDBCF84B58F7DFBCFB8
:100160008091B0008F778093B000D2CF8091B000A3
:100170008F7DF9CF3E2BDACFCF93DF9390E0FC0158
:10018000E057FF4F249184589F4FFC0184918823AE
:10019000D1F090E0880F991FFC01E859FF4FA5911D
:1001A000B491FC01EE58FF4FC591D49161110EC07E
:1001B0009FB7F8948C91E22FE0958E238C93288141
:1001C000E223E8839FBFDF91CF9108958FB7F89422
:1001D000EC91E22BEC938FBFF6CF8E50806480932E
:1001E0007C0080917A00806480937A0080917A000C
:1001F00086FDFCCF809178009091790008951F9240
:100200000F920FB60F9211242F933F938F939F93CA
:10021000AF93BF938091050190910601A0910701D2
:10022000B09108013091040123E0230F2D3758F5D8
:100230000196A11DB11D20930401809305019093A7
:100240000601A0930701B0930801809100019091ED
:100250000101A0910201B09103010196A11DB11D00
:100260008093000190930101A0930201B0930301D8
:10027000BF91AF919F918F913F912F910F900FBEA2
:100280000F901F90189526E8230F0296A11DB11D0F
:10029000D2CF789484B5826084BD84B5816084BDFA
:1002A00085B5826085BD85B5816085BD80916E0014
:1002B000816080936E001092810080918100826045
:1002C0008093810080918100816080938100809182
:1002D00080008160809380008091B1008460809371
:1002E000B1008091B00081608093B00080917A006D
:1002F000846080937A0080917A00826080937A0093
:1003000080917A00816080937A0080917A00806881
:1003100080937A001092C10060E08EE00E94BC00E1
:1003200060E08FE00E94BC0061E08CE00E94BC00B5
:1003300061E08BE00E94BC0061E08AE00E94BC00AA
:1003400080E0C82E80E0D82E8EE00E94ED007C0177
:100350008FE00E94ED008C01E816F906BCF0B701B1
:100360000F2C000C880B990B0E94160226E636E62D
:1003700046E65FE30E947A020E94DE01C1E0601758
:1003800071072CF011E0C0E060E007C0C0E061E060
:10039000E016F1060CF060E010E08CE00E947000C6
:1003A0006C2F8BE00E947000612F8AE00E94700029
:1003B000C114D10449F20E940000C6CF0E94E50199
:1003C0006894B1110C94740208950E94590288F047
:1003D0009F5798F0B92F9927B751B0F0E1F0660F09
:1003E000771F881F991F1AF0BA95C9F714C0B1304A
:1003F00091F00E947302B1E008950C947302672F8C
:10040000782F8827B85F39F0B93FCCF38695779578
:100410006795B395D9F73EF4909580957095619561
:100420007F4F8F4F9F4F0895E89409C097FB3EF48C
:1004300090958095709561957F4F8F4F9F4F992331
:10044000A9F0F92F96E9BB279395F69587957795AF
:100450006795B795F111F8CFFAF4BB0F11F460FF6F
:100460001BC06F5F7F4F8F4F9F4F16C0882311F0C7
:1004700096E911C0772321F09EE8872F762F05C0DB
:10048000662371F096E8862F70E060E02AF09A9576
:10049000660F771F881FDAF7880F9695879597F96B
:1004A000089557FD9058440F551F59F05F3F71F064
:1004B0004795880F97FB991F61F09F3F79F08795CB
:1004C0000895121613061406551FF2CF4695F1DF54
:1004D00008C0161617061806991FF1CF86957105E4
:1004E000610508940895E894BB2766277727CB0118
:1004F00097F908950E948D020C94FE020E94F0026A
:1005000038F00E94F70220F0952311F00C94E702D6
:100510000C94ED0211240C9474020E94510270F3A9
:10052000959FC1F3950F50E0551F629FF001729F98
:10053000BB27F00DB11D639FAA27F00DB11DAA1FA7
:10054000649F6627B00DA11D661F829F2227B00DF4
:10055000A11D621F739FB00DA11D621F839FA00D7F
:10056000611D221F749F3327A00D611D231F849FCF
:10057000600D211D822F762F6A2F11249F57504026
:100580009AF0F1F088234AF0EE0FFF1FBB1F661FA1
:10059000771F881F91505040A9F79E3F510580F06A
:1005A0000C94E7020C9474025F3FE4F3983ED4F39A
:1005B000869577956795B795F795E7959F5FC1F70E
:1005C000FE2B880F911D9695879597F9089597F9B9
:1005D0009F6780E870E060E008959FEF80EC0895E9
:1005E00000240A9416161706180609060895002412
:1005F0000A9412161306140605060895092E03948C
:10060000000C11F4882352F0BB0F40F4BF2B11F4FF
:1006100060FF04C06F5F7F4F8F4F9F4F0895F89426
:02062000FFCF0A
:00000001FF
